:020000040800F2
:10000000C844002001010008090100080B01000894
:100010000D0100080F010008110100080000000098
:1000200000000000000000000000000013010008B4
:100030001501000800000000170100081D1A000843
:100040001B0100081B0100081B0100081B01000820
:100050001B0100081B010008870C00081B01000899
:100060001B0100081B0100081B0100081B01000800
:100070001B0100081B0100081B0100081B010008F0
:100080001B0100081B0100081B0100081B010008E0
:100090001B0100081B0100081B0100081B010008D0
:1000A0001B0100081B0100081B0100081B010008C0
:1000B0001B0100081B0100081B0100081B010008B0
:1000C0001B0100081B0100081B0100081B010008A0
:1000D0001B0100081B010008A11B00081B010008F0
:1000E000DD0C00081B0100081B010008DFF80CD024
:1000F00000F03CF80048004789410008C84400204F
:100100000648804706480047FEE7FEE7FEE7FEE7B1
:10011000FEE7FEE7FEE7FEE7FEE7FEE7791A0008E6
:10012000ED00000840EA01039B0703D009E008C97D
:10013000121F08C0042AFAD203E011F8013B00F8AC
:10014000013B521EF9D27047D2B201E000F8012BF8
:10015000491EFBD270470022F6E710B513460A4647
:1001600004461946FFF7F0FF204610BD064C074D28
:1001700006E0E06840F0010394E807009847103477
:10018000AC42F6D3FFF7B6FFA8640008C8640008C5
:1001900070B58C1810F8015B15F0070301D110F849
:1001A000013B2A1106D110F8012B03E010F8016B76
:1001B00001F8016B5B1EF9D12B0705D40023521EF9
:1001C0000DD401F8013BFAE710F8013BCB1A921C61
:1001D00003E013F8015B01F8015B521EF9D5A1425F
:1001E000D8D3002070BD000070B500260025002483
:1001F00000BF2AE0A00008301749085C17490979B8
:10020000884220D1A000093013490D5C691E01EB22
:10021000011202EBC111124A02EB81004FF411717D
:10022000FFF799FF0C49891F0B7AC97943EA01222C
:10023000691E01EB011303EBC111094B03EB8100B4
:100240000549FFF76FFF601CC4B20348801F007BA5
:10025000A042CFDC304670BD621500201A0000209D
:10026000842C002010B500F01FF800F097F900F082
:10027000DDF900F0C3F900F07DF800F0F6FC00F0C5
:1002800098FB00F087FF00F0D9FF00F059FF00F065
:100290002DFF00F001FF00F0D5FE00F0A9FE00F0F8
:1002A000A3FF00F021F810BD08B501210C2001F0DA
:1002B00031FA49F60310ADF8000010208DF8030064
:1002C00003208DF802006946054800F0B9FDF820CA
:1002D000ADF800006946034800F0B2FD08BD00001B
:1002E00000080140000C014000B585B0012144F236
:1002F000040001F00FFA4FF40070ADF81000182060
:100300008DF8130003208DF8120004A9174800F09F
:1003100097FD4FF48060ADF8100004208DF81300B5
:1003200004A9124800F08CFD4FF4E1300090002049
:10033000ADF80400ADF80600ADF80800ADF80C000B
:100340000C20ADF80A006946094801F0D5FC0122ED
:1003500040F22551064801F0A9FC01F033F80121D3
:10036000034801F08AFC05B000BD00000008014010
:100370000038014000B589B001210D2001F0CAF913
:100380000121080301F0C6F90121880301F0B2F947
:1003900001217D4800F0E0FD1020ADF820008DF82F
:1003A000230003208DF8220008A9784800F048FDBA
:1003B000E020ADF8200018208DF8230008A973482C
:1003C00000F03EFD0220ADF8200010208DF8230043
:1003D00003208DF8220008A96D4800F031FD4FF48C
:1003E000C050ADF8200010208DF8230003208DF8B8
:1003F000220008A9664800F023FD4FF46040ADF8E4
:10040000200018208DF8230008A9614800F018FD8D
:1004100040F20140ADF8200048208DF8230008A9E3
:100420005B4800F00DFD4FF4E06001F019F8062084
:100430008DF8000000208DF801008DF802000120E9
:100440008DF80300684600F0D3FF0021012000F082
:10045000D7FC012006908DF81E0000208DF81C00AE
:100460000C208DF81D0006A800F080FC4FF4E06021
:1004700000F0F6FF28208DF8000000208DF8010024
:100480008DF8020001208DF80300684600F0B0FFEF
:100490000A21012000F0B4FC4FF480600690012096
:1004A0008DF81E0000208DF81C000C208DF81D001A
:1004B00006A800F05BFC0221354800F097FD4FF4E0
:1004C0000061334800F092FD1021304800F08EFDAD
:1004D0004FF480512E4800F089FD0020ADF8040053
:1004E0004FF48270ADF806000020ADF80800ADF8BA
:1004F0000A00ADF80C004FF40070ADF80E001020AB
:10050000ADF810000020ADF812000720ADF814007F
:1005100001A9204801F0F0F901A91F4801F0ECF908
:1005200001211C4801F0CEF901211B4801F0CAF954
:100530000221174800F05AFD0221154800F054FD31
:10054000642000F0D9F80221114800F04FFD4FF46B
:100550007A7000F0D1F84FF400610D4800F046FDCC
:100560004FF400610A4800F03FFD642000F0C4F839
:100570004FF40061064800F039FD4FF47A7000F046
:10058000BBF809B000BD00000002300000080140C7
:10059000000C0140003001400038004030B51448E4
:1005A00000684FF47A72B0FBF2F1481EB0F1807F20
:1005B00000D31BE0481E4FF0E022506150170F227D
:1005C000002807DA13071D0E0A4B00F00F04241F42
:1005D0001D5503E013071C0E074B1C5400BF0020E1
:1005E0004FF0E02290610720106100BF30BD000095
:1005F0002815002018ED00E000E400E00EB5012110
:10060000084601F077F80120ADF8040041F61F40DC
:10061000ADF800004FF48070ADF806001020ADF882
:1006200002006946800601F069FA0EBD00B587B088
:100630000121052001F06EF80121480401F05AF86B
:1006400026208DF8040000208DF805008DF80600A6
:1006500001A800F0CDFE0420ADF8080018208DF8A8
:100660000B0003208DF80A0002A9214800F0E8FBE6
:100670000820ADF8080004208DF80B0002A91C48E2
:1006800000F0DEFB4FF4E13003900020ADF81800DD
:100690000C20ADF816000020ADF81400ADF81200E3
:1006A000ADF8100003A9134801F026FB4FF4E060F9
:1006B00000F0D6FE26208DF8040000208DF80500FD
:1006C00001208DF806008DF8070001A800F090FECB
:1006D000012240F22551074801F0E8FA01210548BE
:1006E00001F0CBFA4021034801F0BEFA07B000BD8B
:1006F000000801400044004070B504462546012131
:10070000880701F0E9F9A9B24FF0804001F0F3F950
:1007100004E04FF0804001F0EBF90546012DF8D8D8
:1007200000214FF0804001F0D7F970BD2DE9F04174
:1007300005460E461746002410210C4800F054FCD4
:1007400005F1C001C8B201F085F800BF05E0FF2047
:1007500001F080F83055601C84B2BC42F7DB1021F8
:10076000024800F043FCBDE8F081000000080140B1
:1007700070B5044600251021084800F035FC04F14E
:100780004001C8B201F066F8FF2001F063F80546A9
:100790001021024800F02AFC284670BD00080140E4
:1007A0002DE9F04105460E461746002410210B485E
:1007B00000F01AFC05F18001C8B201F04BF800BF4F
:1007C00004E0305D01F046F8601C84B2BC42F8DB06
:1007D0001021024800F00AFCBDE8F0810008014049
:1007E00070B505460C461021064800F0FDFB284672
:1007F00001F030F8204601F02DF81021014800F0FA
:10080000F5FB70BD0008014070B505460024012DC0
:1008100025D0022D18D0032D0BD0042D2AD100F0A5
:10082000FBF8044624F002042146042000F030F9CD
:1008300021E0142000F0F0F8044624F002042146E0
:10084000142000F025F916E0242000F0E5F8044615
:1008500024F002042146242000F01AF90BE0342091
:1008600000F0DAF8044624F002042146342000F0B7
:100870000FF900E000BF00BF70BD70B50646002450
:100880000025012E44D0022E2DD0032E16D0042E8A
:1008900053D1062000F0C0F8054645F00105294671
:1008A000062000F0F5F8042000F0B6F8044644F005
:1008B00001042146042000F0EBF83FE0162000F090
:1008C000ABF8054645F001052946162000F0E0F892
:1008D000142000F0A1F8044644F00104214614203D
:1008E00000F0D6F82AE0262000F096F8054645F0FC
:1008F00001052946262000F0CBF8242000F08CF8D2
:10090000044644F001042146242000F0C1F815E01B
:10091000362000F081F8054645F0010529463620CD
:1009200000F0B6F8342000F077F8044644F00104F3
:100930002146342000F0ACF800E000BF00BF70BDDD
:1009400070B505460024012D25D0022D18D0032DA9
:100950000BD0042D2AD100F05FF8044644F00204C5
:100960002146042000F094F821E0142000F054F80F
:10097000044644F002042146142000F089F816E0F1
:10098000242000F049F8044644F0020421462420C3
:1009900000F07EF80BE0342000F03EF8044644F00E
:1009A00002042146342000F073F800E000BF00BFCD
:1009B00070BD10B50F21002000F06AF80F21012052
:1009C00000F066F80F21102000F062F810BD000062
:1009D0002DE9F04105460E46174600244FF480519C
:1009E0000C4800F001FB05F1C001C8B200F04EFF59
:1009F00000BF05E0FF2000F049FF3055601C84B2C5
:100A0000BC42F7DB4FF48051024800F0EFFABDE83A
:100A1000F0810000000C014070B5044600254FF441
:100A20008051094800F0E0FA04F14001C8B200F03A
:100A30002DFFFF2000F02AFF05464FF480510248A9
:100A400000F0D4FA284670BD000C01402DE9F041B9
:100A500005460E46174600244FF480510B4800F01F
:100A6000C3FA05F18001C8B200F010FF00BF04E036
:100A7000305D00F00BFF601C84B2BC42F8DB4FF429
:100A80008051024800F0B2FABDE8F081000C01404C
:100A900070B505460C464FF48051074800F0A4FAA3
:100AA000284600F0F3FE204600F0F0FE4FF480519F
:100AB000014800F09BFA70BD000C014070B505467E
:100AC0000024052D26D0062D19D0072D0CD0082D79
:100AD0002BD10420FFF74CFE044624F002042146EB
:100AE0000420FFF77DFE21E01420FFF741FE0446BD
:100AF00024F0020421461420FFF772FE16E02420A1
:100B0000FFF736FE044624F0020421462420FFF7B6
:100B100067FE0BE03420FFF72BFE044624F00204AE
:100B200021463420FFF75CFE00E000BF00BF70BD2F
:100B300070B5064600240025052E44D0062E2DD083
:100B4000072E16D0082E53D10620FFF711FE0546BA
:100B500045F0010529460620FFF742FE0420FFF775
:100B600007FE044644F0010421460420FFF738FE46
:100B70003FE01620FFF7FCFD054645F0010529463C
:100B80001620FFF72DFE1420FFF7F2FD044644F077
:100B9000010421461420FFF723FE2AE02620FFF758
:100BA000E7FD054645F0010529462620FFF718FE1A
:100BB0002420FFF7DDFD044644F0010421462420F3
:100BC000FFF70EFE15E03620FFF7D2FD054645F093
:100BD000010529463620FFF703FE3420FFF7C8FD44
:100BE000044644F0010421463420FFF7F9FD00E0FB
:100BF00000BF00BF70BD70B505460024052D26D08E
:100C0000062D19D0072D0CD0082D2BD10420FFF76D
:100C1000AFFD044644F0020421460420FFF7E0FD46
:100C200021E01420FFF7A4FD044644F0020421460D
:100C30001420FFF7D5FD16E02420FFF799FD0446A8
:100C400044F0020421462420FFF7CAFD0BE03420C3
:100C5000FFF78EFD044644F0020421463420FFF7DE
:100C6000BFFD00E000BF00BF70BD10B50F21002028
:100C7000FFF7B6FD0F210120FFF7B2FD0F21102075
:100C8000FFF7AEFD10BD08B500200090012000F078
:100C900059F810B3012000F04FF81120FFF768FD5C
:100CA00000909DF8000000F0010008B101F0E4FAA6
:100CB0009DF8000000F0020008B101F0CBFB9DF8A8
:100CC000000000F0040008B101F05EFA9DF8000099
:100CD00000F0080008B101F0E1F908BD08B50020F6
:100CE00000904FF4806000F02DF818B34FF480604E
:100CF00000F022F81120FFF78FFE00909DF8000011
:100D000000F0010008B101F053F99DF8000000F077
:100D1000020008B101F0D6F89DF8000000F00400D0
:100D200008B101F059F89DF8000000F0080008B182
:100D300001F01AFB08BD000001490860704700007F
:100D400014040140014600200022074B1B6803EAFF
:100D50000102054B14331B680B4013B10AB101208B
:100D600000E00020704700000004014000212349FA
:100D70008279002A3AD00A46126803689A430B46E1
:100D80001A600A1D126803689A430B1D1A600279E3
:100D900011440A6803681A430A60184A0832126844
:100DA00003689A43154B08331A601A1D12680368CA
:100DB0009A43124B0C331A604279102A0ED11A1F33
:100DC000126803681A430D4B08331A601A1D126823
:100DD00003681A43094B0C331A600DE00749427946
:100DE00011440A6803681A430A6005E00279114455
:100DF0000A6803689A430A607047000000040140D3
:100E000030B500228B071C0F0F2303FA04F20B4BA3
:100E10008C1053F824309343084C8D1044F825303F
:100E200023468C1053F824308C07240F00FA04F466
:100E30002343024C8D1044F8253030BD080001409A
:100E40002DE9F04102460025002600200023002461
:100E5000002791F803C00CF00F0591F803C00CF0C7
:100E6000100CBCF1000F03D091F802C04CEA05054C
:100E700091F800C0BCF1000F31D0146800202BE0C5
:100E80004FF0010C0CFA00F3B1F800C00CEA0306B5
:100E90009E4220D183004FF00F0C0CFA03F7BC43A5
:100EA00005FA03FC4CEA040491F803C0BCF1280FD6
:100EB00006D14FF0010C0CFA00FCC2F814C00AE095
:100EC00091F803C0BCF1480F05D14FF0010C0CFAAA
:100ED00000FCC2F810C0401C0828D1D31460B1F83F
:100EE00000C0BCF1FF0F34DD546800202EE000F19B
:100EF000080C4FF0010808FA0CF3B1F800C00CEA36
:100F000003069E4221D183004FF00F0C0CFA03F729
:100F1000BC4305FA03FC4CEA040491F803C0BCF19D
:100F2000280F05D100F1080C08FA0CF8C2F814805B
:100F300091F803C0BCF1480F07D100F1080C4FF045
:100F4000010808FA0CF8C2F81080401C0828CED31B
:100F50005460BDE8F0810000F0B50A46002300248B
:100F60000021002500F00046B6F1004F02D11D4ED1
:100F7000F16901E01B4E7168C0F3034583B200F4D0
:100F80004016B6F5401F08D121F07061154E766805
:100F900026F07066134F7E6012E000F48016B6F5FE
:100FA000801F06D1032606FA05F4A14341F07061C3
:100FB00006E0460D360103FA06F6B14341F07061D2
:100FC00022B1460D360103FA06F6314300F0004621
:100FD000B6F1004F02D1034EF16101E0014E7160A4
:100FE000F0BD0000000001404161704701617047A1
:100FF00010B500212320FFF74BFD03212420FFF72C
:1010000047FD00212520FFF743FD0F212620FFF794
:101010003FFD83212720FFF73BFD01212320FFF720
:1010200037FD00212420FFF733FD05212520FFF7A0
:101030002FFD00212620FFF72BFD00212320FFF7A5
:1010400027FD10BD10B500211320FFF721FD03215E
:101050001420FFF71DFD00211520FFF719FD0F21BA
:101060001620FFF715FD83211720FFF711FD012141
:101070001320FFF70DFD00211420FFF709FD0521C6
:101080001520FFF705FD00211620FFF701FD0021C7
:101090001320FFF7FDFC10BD10B500210320FFF762
:1010A000F7FC03210420FFF7F3FC00210520FFF7E4
:1010B000EFFC0F210620FFF7EBFC83210720FFF751
:1010C000E7FC01210320FFF7E3FC00210420FFF7E8
:1010D000DFFC05210846FFF7DBFC00210620FFF7B7
:1010E000D7FC00210320FFF7D3FC10BD10B5002171
:1010F0003320FFF775FB03213420FFF771FB00213C
:101100003520FFF76DFB0F213620FFF769FB8321A8
:101110003720FFF765FB01213320FFF761FB00213A
:101120003420FFF75DFB05213520FFF759FB002137
:101130003620FFF755FB00213320FFF751FB10BD90
:1011400010B500212320FFF74BFB03212420FFF7DC
:1011500047FB00212520FFF743FB0F212620FFF747
:101160003FFB83212720FFF73BFB01212320FFF7D3
:1011700037FB00212420FFF733FB05212520FFF753
:101180002FFB00212620FFF72BFB00212320FFF758
:1011900027FB10BD10B500210320FFF721FB032121
:1011A0000420FFF71DFB00210520FFF719FB0F218D
:1011B0000620FFF715FB83210720FFF711FB012114
:1011C0000320FFF70DFB00210420FFF709FB052199
:1011D0000846FFF705FB00210620FFF701FB002171
:1011E0000320FFF7FDFA10BD10B500213320FFF7F3
:1011F0004FFC03213420FFF74BFC00213520FFF783
:1012000047FC0F213620FFF743FC83213720FFF7EF
:101210003FFC01213320FFF73BFC00213420FFF786
:1012200037FC05213520FFF733FC00213620FFF77E
:101230002FFC00213320FFF72BFC10BD10B500213F
:101240001320FFF7CDFA03211420FFF7C9FA00217C
:101250001520FFF7C5FA0F211620FFF7C1FA8321E9
:101260001720FFF7BDFA01211320FFF7B9FA00217B
:101270001420FFF7B5FA05211520FFF7B1FA002178
:101280001620FFF7ADFA00211320FFF7A9FA10BDD1
:1012900000210160C180017201717047034800683C
:1012A000C06808B9012070470020FCE748140020FE
:1012B00030B58BB000250024202103A8FEF74BFF9A
:1012C00000200090019002903B48807A032821D1B1
:1012D0003948447B611E01EB011202EBC111374A10
:1012E00002EB81004FF41171FEF735FF3249097AA4
:1012F000891C314BDB7941EA0322611E01EB0113AA
:1013000003EBC1112D4B03EB81002B49891DFEF727
:1013100009FF4DE02848807A022849D11E2226493B
:101320000F3103A8FEF7FEFE002002F09FFC4FF4F1
:10133000FE3003F099F91E2203A94FF4FE3003F0AA
:1013400094F91E221E494FF4FE3000F05DFA02F0BF
:101350008EFC7E208DF8000000208DF80100092011
:101360008DF8020013208DF8030002208DF8040090
:101370001148C07B8DF8050000208DF806008DF81F
:1013800007008DF808000921684602F071FC8DF80D
:1013900009005A208DF80A009DF80200801C9DF873
:1013A000011040EA012205230321684601F0F0FB09
:1013B00028460BB030BD00005C150020842C0020B6
:1013C000A43E002008B54FF4E06000F049F8252065
:1013D0008DF8000000208DF8010004208DF8020037
:1013E00001208DF80300684600F002F808BD0000F7
:1013F00070B5002100230F22C47804B3154C246873
:1014000004F4E064C4F5E064210AC1F10403CA40B5
:10141000447804FA03F184781440214309010E4C06
:101420000678A155047804F01F050124AC40057826
:101430006D11AD0005F1E025C5F8004109E0047823
:1014400004F01F050124AC40044D0678761145F8E0
:10145000264070BD0CED00E000E400E080E100E01B
:1014600002490143024A1160704700000000FA057A
:101470000CED00E00CB50146C8780190002000900A
:101480009DF80400102827D00CDCA0F103000D28E3
:1014900021D2DFE800F01623244117CCCCCCCCCCF1
:1014A0004CCCAD0089280FD006DC132837D020287B
:1014B00013D088280FD106E0A62873D0F628F9D1DA
:1014C000B2E000BF00BF00BF08795B4A12799042CA
:1014D00001D101200090AAE000BF00BF00BF564824
:1014E0000079FF2804D0544800790A7990420BD043
:1014F0000879112802DD002000900CE008794E4A9E
:1015000010710120009006E008794B4A1279904250
:1015100001D1012000908AE00120009087E08879C5
:10152000454A1279904201D1012000907FE008796C
:10153000102841D00ADC0D2857D2DFE800F05624ED
:1015400036373844393A3B3C46562B008C283BD042
:101550000CDC192832D004DC112815D0182844D10D
:101560002BE030282BD08A283FD12BE0A42834D080
:1015700004DC9A2825D0A22837D121E0B12812D046
:10158000B22832D110E000BF48792B4A10710120F7
:1015900000902BE04879284A1279904201D101202D
:1015A000009023E03FE000BF00BF00BF00BF00BFCE
:1015B00000BF00BF00BF00BF00BF00BF00BF00BF33
:1015C00000BF00BF00BF00BF00BF88791A4A127970
:1015D000904201D10120009008E0087A164A127961
:1015E000904201D10120009000E000BF00BF1EE04A
:1015F0000879052802D0087906280CD148790E4AC6
:101600001279904204D0487A0B4A1279904209D15B
:101610000120009006E04879074A1279904201D1F2
:101620000120009003E000BF0120009000BF00BF38
:101630009DF800000CBD00001A00002070B50025C8
:1016400000242A48407A88282BD100BF26E005EBE9
:101650004500401D2549891D0C5C611E01EB0112EE
:1016600002EBC111224A02EB81004FF41171FEF727
:1016700072FD1E49097A891C1C4BDB7941EA032261
:10168000611E01EB011303EBC111194B03EB810048
:101690001649891DFEF746FD681CC5B2022DD6DB32
:1016A00020E01248C47A611E01EB011202EBC11165
:1016B0000F4A02EB81004FF41171FEF74CFD0B490C
:1016C000097A891C094BDB7941EA0322611E01EB8F
:1016D000011303EBC111064B03EB81000349891D84
:1016E000FEF720FD03F006FF70BD00005C15002032
:1016F000842C002029B1064AD2690243044BDA61E6
:1017000004E0034AD2698243014BDA61704700006A
:101710000010024029B1064A92690243044B9A61C3
:1017200004E0034A92698243014B9A6170470000CA
:101730000010024030B500210022002400232D4D6E
:101740006D6805F00C0121B1042905D0082923D1C9
:1017500005E0294D056022E0274D05601FE0254D7D
:101760006D6805F47012234D6D6805F48034022510
:1017700005EB92421CB9214D554305600BE01D4D10
:101780006D6805F400351DB11C4D5543056002E040
:10179000194D5543056002E0174D056000BF00BFBD
:1017A000144D6D6805F0F0010909154D6B5C056875
:1017B000DD4045600F4D6D6805F4E061090A104D8C
:1017C0006B5C4568DD4085600A4D6D6805F46051CD
:1017D000C90A0B4D6B5C4568DD40C560054D6D6801
:1017E00005F44041890B074D6B5CC568B5FBF3F50B
:1017F000056130BD0010024000127A0000093D0072
:101800003C1500204C150020F0B503460C4616464A
:10181000002504E01F7827709B1C641C6D1CB542DA
:10182000F8DBF0BD10B50948007838B90121084847
:10183000FFF7DAFB01200549087006E001210448A2
:10184000FFF7D4FB00200149087010BD18000020EC
:101850000008014010B5044600BF02210A4800F00C
:101860003DF80028F9D02146074800F043F800BFB2
:101870000121054800F032F80028F9D0024800F0B4
:1018800036F8C0B210BD00000030014010B504466B
:1018900000BF02210A4800F021F80028F9D02146B3
:1018A000074800F027F800BF0121054800F016F8AE
:1018B0000028F9D0024800F01AF8C0B210BD0000AC
:1018C0000038004021B1028842F04002028004E06A
:1018D00002884FF6BF731A4002807047024600200C
:1018E00013890B400BB1012000E000207047014636
:1018F000888970478181704710B50022028802F400
:1019000041520B884C8823438C882343CC88234343
:101910000C8923434C8923438C892343CC8923435B
:101920001A430280838B4FF2FF74234083830B8A18
:10193000038210BD10B500F001F810BD0CB50020F9
:10194000019000903348006840F4803031490860CD
:1019500000BF3048006800F4003000900198401C3F
:101960000190009818B90198B0F5A06FF1D12948FD
:10197000006800F4003010B10120009001E0002068
:1019800000900098012843D12348006840F01000DF
:10199000214908600846006820F0030008600846F6
:1019A000006840F0020008601A4840681949486021
:1019B0000846406848600846406840F480604860D7
:1019C0000846406820F47C1048600846406840F4AF
:1019D000E81048600846006840F08070086000BF6A
:1019E0000C48006800F000700028F9D009484068F1
:1019F00020F00300074948600846406840F00200B4
:101A0000486000BF0348406800F00C000828F9D186
:101A10000CBD0000001002400020024010B512482A
:101A20000068401C1049086008460068B0F57A7FDD
:101A300002D101200D4908600D48006820B10C4812
:101A40000068401E0A49086008480068012801D162
:101A500004F0DAFA0748006820B106480068401E22
:101A60000449086010BD00000400002010000020A0
:101A7000080000201400002010B51348006840F052
:101A800001001149086008464068104908400E49A5
:101A90004860084600680E4908400B49086008463F
:101AA000006820F4802008600846406820F4FE00AA
:101AB00048604FF41F008860FFF73CFF4FF0006064
:101AC0000449086010BD0000001002400000FFF84B
:101AD000FFFFF6FE08ED00E021B1028842F00102AE
:101AE000028004E002884FF6FE731A4002807047BD
:101AF0000146888C7047818470470000002202886C
:101B00001D4B98420ED01D4B98420BD0B0F1804F28
:101B100008D01B4B984205D01A4B984202D01A4B62
:101B2000984204D14FF68F731A404B881A43174BD3
:101B3000984207D0164B984204D04FF6FF431A4004
:101B4000CB881A4302808B8883850B8803850A4BD8
:101B500098420BD0094B984208D00E4B984205D0C2
:101B60000D4B984202D00D4B984201D10B7A03865F
:101B70000123838270470000002C014000340140A3
:101B80000004004000080040000C0040001000402D
:101B90000014004000400140004401400048014062
:101BA00010B52D48008800F0200000B32A49091D17
:101BB0000988CAB229498888411C284B9980991DF7
:101BC0000A54881F808840F2BB21884202DB481EED
:101BD000194688802048008820F020001E4908808F
:101BE00002211F4803F05AFC1D4804F005FA1A4868
:101BF000008800F0400068B31848008817494988F9
:101C000088420EDD1548D0F8BC0214494988405C72
:101C10001149091D088011484088401C0F4948801F
:101C200018E00D480C30008820F080000A490C3183
:101C300008803320094981F8B9020020C1F8BC02AC
:101C400048800880012004F0BDFB4FF480710548F6
:101C5000FFF7CAF910BD0000004400405C150020E9
:101C6000942B00200008014001F40072B2F5007FBF
:101C700000D100BFCA430280704721B1828942F47B
:101C80000052828104E082894DF6FF731A408281FE
:101C9000704702460020B1F5007F00D100BF1388D5
:101CA0000B400BB1012000E000207047F0B5034667
:101CB000002400260025002040F66A17B94200D112
:101CC00000BF1846C1F3421401F01F06012707FAAE
:101CD00006F5012C01D10C3004E0022C01D11030AA
:101CE00000E014301AB107682F43076002E007686C
:101CF000AF430760F0BD00002DE9F04786B0054610
:101D00000E460024A24600BFA1460027B08900B1BC
:101D100000BF2F462C8A4CF6FF700440F088044325
:101D20002C82AC894EF6F3100440B0883189084308
:101D3000718908430443AC81AC8A4FF6FF400440EC
:101D4000B0890443AC8201A8FFF7F4FC1F48874226
:101D500002D1DDF810A001E0DDF80CA0A88900F4A4
:101D6000004040B10AEBCA0000EB0A10316849009C
:101D7000B0FBF1F807E00AEBCA0000EB0A1031688B
:101D80008900B0FBF1F86420B8FBF0F004012009F1
:101D9000642101FB1089A88900F4004040B1322081
:101DA00000EBC900B0FBF1F000F00700044308E0CD
:101DB000322000EB09106421B0FBF1F000F00F00BD
:101DC00004432C8106B0BDE8F087000000380140D4
:101DD000C1F30802828070471CB50020019000907A
:101DE0002820FEF719FE01909DF8040000F0030082
:101DF00008B31449B1F86412124A881800F040FD83
:101E000000901048B0F86402BDF8001008440D4975
:101E1000A1F864020846B0F86402B0F5F97F03DD6A
:101E20004FF4F970A1F864020221074803F036FB71
:101E3000054804F0E1F89DF804009DF804009DF8C1
:101E400004001CBD8C260020E42B00202DE9F0416D
:101E500006460C460027002540211948FFF7C6F822
:101E60001E20FEF749FC2046E11704EB1161C1F387
:101E70000F2700BF19E007FB154291B24FF48072A3
:101E800002FB056000F019FD074600BF2920FEF7A0
:101E9000C3FD0028FADC00BF2B20FEF7BDFD00F0DB
:101EA00001000028F8D1681C85B2BD42E3DD102195
:101EB0000348FFF799F81E20FEF71EFCBDE8F081ED
:101EC000000C01401CB50020019000901820FEF786
:101ED000A3FD01909DF8040000F0030008B314492D
:101EE000B1F86412124A881800F085FC009010487E
:101EF000B0F86402BDF8001008440D49A1F864026E
:101F00000846B0F86402B0F5F97F03DD4FF4F970CC
:101F1000A1F864020221074803F0C0FA054804F062
:101F20006BF89DF804009DF804009DF804001CBDAA
:101F300026240020F42B00202DE9F04106460C4613
:101F40000027002520211948FFF750F81E20FEF732
:101F5000D3FB2046E11704EB1161C1F30F2700BF4B
:101F600019E007FB154291B24FF4807202FB056045
:101F700000F05EFC074600BF1920FEF74DFD00286B
:101F8000FADC00BF1B20FEF747FD00F0010000282F
:101F9000F8D1681C85B2BD42E3DD20210348FFF77C
:101FA00023F81E20FEF7A8FBBDE8F081000C0140DD
:101FB0001CB50020019000900820FEF72DFD019037
:101FC0009DF8040000F0030008B31449B1F864124E
:101FD000124A881800F0CAFB00901048B0F864025A
:101FE000BDF8001008440D49A1F864020846B0F895
:101FF0006402B0F5F97F03DD4FF4F970A1F86402D3
:102000000221074803F04AFA054803F0F5FF9DF85E
:1020100004009DF804009DF804001CBDC0210020B0
:10202000042C00202DE9F04106460C46002700252F
:1020300010211948FEF7DAFF1E20FEF75DFB20464F
:10204000E11704EB1161C1F30F2700BF19E007FB93
:10205000154291B24FF4807202FB056000F0A3FBC1
:10206000074600BF0920FEF7D7FC0028FADC00BFB6
:102070000B20FEF7D1FC00F001000028F8D1681C0D
:1020800085B2BD42E3DD10210348FEF7ADFF1E20FF
:10209000FEF732FBBDE8F081000C01401CB50020CA
:1020A000019000903820FEF763FB01909DF804003A
:1020B00000F0030008B31449B1F86412124A8818FA
:1020C00000F00FFB00901048B0F86402BDF800105B
:1020D00008440D49A1F864020846B0F86402B0F55E
:1020E000F97F03DD4FF4F970A1F86402022107487B
:1020F00003F0D4F9054803F07FFF9DF804009DF834
:1021000004009DF804001CBD5A1F0020D42B0020A1
:102110002DE9F04106460C46002700250821194804
:10212000FEF764FF1E20FEF7E7FA2046E11704EBF6
:102130001161C1F30F2700BF19E007FB154291B2EF
:102140004FF4807202FB056000F0E8FA074600BF1A
:102150003920FEF70DFB0028FADC00BF3B20FEF71C
:1021600007FB00F001000028F8D1681C85B2BD42D1
:10217000E3DD08210348FEF737FF1E20FEF7BCFA17
:10218000BDE8F081000C01401CB5002001900090DA
:102190002820FEF7EDFA01909DF8040000F00300FE
:1021A00008B31449B1F86412124A881800F054FABE
:1021B00000901048B0F86402BDF8001008440D49C2
:1021C000A1F864020846B0F86402B0F5F97F03DDB7
:1021D0004FF4F970A1F864020221074803F05EF998
:1021E000054803F009FF9DF804009DF804009DF8E0
:1021F00004001CBDF41C0020C42B00202DE9F0417C
:1022000006460C46002700254FF400411948FEF70A
:10221000EDFE1E20FEF770FA2046E11704EB116177
:10222000C1F30F2700BF19E007FB154291B24FF42D
:10223000807202FB056000F02CFA074600BF2920DF
:10224000FEF796FA0028FADC00BF2B20FEF790FA82
:1022500000F001000028F8D1681C85B2BD42E3DD22
:102260004FF400410348FEF7BFFE1E20FEF744FA7C
:10227000BDE8F081000801401CB5002001900090ED
:102280000820FEF775FA01909DF8040000F00300A5
:1022900008B31449B1F86412124A881800F052F9D0
:1022A00000901048B0F86402BDF8001008440D49D1
:1022B000A1F864020846B0F86402B0F5F97F03DDC6
:1022C0004FF4F970A1F864020221074803F0E6F820
:1022D000054803F091FE9DF804009DF804009DF868
:1022E00004001CBD28180020A42B00202DE9F0417B
:1022F00006460C46002700254FF400611948FEF7FA
:1023000075FE1E20FEF7F8F92046E11704EB116177
:10231000C1F30F2700BF19E007FB154291B24FF43C
:10232000807202FB056000F02AF9074600BF092011
:10233000FEF71EFA0028FADC00BF0B20FEF718FAA1
:1023400000F001000028F8D1681C85B2BD42E3DD31
:102350004FF400610348FEF747FE1E20FEF7CCF95C
:10236000BDE8F081000801401CB5002001900090FC
:102370003820FEF751FB01909DF8040000F00300A7
:1023800008B31449B1F86412124A881800F0BDFA73
:1023900000901048B0F86402BDF8001008440D49E0
:1023A000A1F864020846B0F86402B0F5F97F03DDD5
:1023B0004FF4F970A1F864020221074803F06EF8A7
:1023C000054803F019FE9DF804009DF804009DF8EF
:1023D00004001CBDF2280020142C00202DE9F0413F
:1023E00006460C460027002580211948FEF7FEFD11
:1023F0001E20FEF781F92046E11704EB1161C1F3BD
:102400000F2700BF19E007FB154291B24FF480720D
:1024100002FB056000F096FA074600BF3920FEF780
:10242000FBFA0028FADC00BF3B20FEF7F5FA00F0CB
:1024300001000028F8D1681C85B2BD42E3DD80218F
:102440000348FEF7D1FD1E20FEF756F9BDE8F081E6
:10245000000C01401CB50020019000901820FEF7F0
:1024600087F901909DF8040000F0030008B31449B7
:10247000B1F86412124A881800F0A9F800901048C8
:10248000B0F86402BDF8001008440D49A1F86402D8
:102490000846B0F86402B0F5F97F03DD4FF4F97037
:1024A000A1F864020221074802F0F8FF054803F092
:1024B000A3FD9DF804009DF804009DF804001CBDD8
:1024C0008E1A0020B42B00202DE9F04106460C4660
:1024D000002700254FF480511948FEF787FD1E2084
:1024E000FEF70AF92046E11704EB1161C1F30F274B
:1024F00000BF19E007FB154291B24FF4807202FB56
:10250000056000F081F8074600BF1920FEF730F99A
:102510000028FADC00BF1B20FEF72AF900F00100BA
:102520000028F8D1681C85B2BD42E3DD4FF480512C
:102530000348FEF759FD1E20FEF7DEF8BDE8F081E6
:10254000000801402DE9F04105460026002400273F
:102550000B20FEF70DF9074607F0080060B10A20CE
:10256000FEF706F904460CB94FF48074224629465A
:102570000D20FEF7DBF826463046BDE8F0812DE958
:10258000F04706460C460027B8460025A9460B2012
:10259000FEF7EEF88146022020EA0900A0B10920EA
:1025A000FEF7E6F88046C8F58075A54206DA2F46A4
:1025B0002A4631460D20FEF7F3F805E02246314663
:1025C0000D20FEF7EDF827463846BDE8F0872DE9E7
:1025D000F04105460026002400271B20FEF7C8F81E
:1025E000074607F0080060B11A20FEF7C1F804465C
:1025F0000CB94FF48074224629461D20FEF796F848
:1026000026463046BDE8F0812DE9F04706460C46E7
:102610000027B8460025A9461B20FEF7A9F88146E9
:10262000022020EA0900A0B11920FEF7A1F8804697
:10263000C8F58075A54206DA2F462A4631461D2088
:10264000FEF7AEF805E0224631461D20FEF7A8F859
:1026500027463846BDE8F0872DE9F04105460026BB
:10266000002400272B20FEF783F8074607F0080018
:1026700060B12A20FEF77CF804460CB94FF4807450
:10268000224629462D20FEF751F826463046BDE861
:10269000F0812DE9F04706460C460027B846002594
:1026A000A9462B20FEF764F88146022020EA0900A3
:1026B000A0B12920FEF75CF88046C8F58075A542D8
:1026C00006DA2F462A4631462D20FEF769F805E046
:1026D000224631462D20FEF763F827463846BDE8EE
:1026E000F0872DE9F04105460026002400273B2015
:1026F000FEF73EF8074607F0080060B13A20FEF703
:1027000037F804460CB94FF48074224629463D2020
:10271000FEF70CF826463046BDE8F0812DE9F0477B
:1027200006460C460027B8460025A9463B20FEF782
:102730001FF88146022020EA0900A0B13920FEF7E7
:1027400017F88046C8F58075A54206DA2F462A4656
:1027500031463D20FEF724F805E0224631463D2073
:10276000FEF71EF827463846BDE8F0872DE9F04110
:1027700005460026002400270B20FEF74DF90746EA
:1027800007F0080060B10A20FEF746F904460CB9CC
:102790004FF48074224629460D20FEF719F926468B
:1027A0003046BDE8F0812DE9F04706460C4600278B
:1027B000B8460025A9460B20FEF72EF981460220D7
:1027C00020EA0900A0B10920FEF726F98046C8F5E5
:1027D0008075A54206DA2F462A4631460D20FEF7BF
:1027E00035F905E0224631460D20FEF72FF9274640
:1027F0003846BDE8F0872DE9F04105460026002463
:1028000000271B20FEF708F9074607F0080060B113
:102810001A20FEF701F904460CB94FF480742246E1
:1028200029461D20FEF7D4F826463046BDE8F08143
:102830002DE9F04706460C460027B8460025A94674
:102840001B20FEF7E9F88146022020EA0900A0B12A
:102850001920FEF7E1F88046C8F58075A54206DA32
:102860002F462A4631461D20FEF7F0F805E02246A5
:1028700031461D20FEF7EAF827463846BDE8F087C6
:102880002DE9F04105460026002400272B20FEF705
:10289000C3F8074607F0080060B12A20FEF7BCF82D
:1028A00004460CB94FF48074224629462D20FEF7C9
:1028B0008FF826463046BDE8F0812DE9F047064600
:1028C0000C460027B8460025A9462B20FEF7A4F8A1
:1028D0008146022020EA0900A0B12920FEF79CF8D9
:1028E0008046C8F58075A54206DA2F462A4631464D
:1028F0002D20FEF7ABF805E0224631462D20FEF7ED
:10290000A5F827463846BDE8F0872DE9F041054691
:102910000026002400273B20FEF77EF8074607F03C
:10292000080060B13A20FEF777F804460CB94FF47E
:102930008074224629463D20FEF74AF82646304656
:10294000BDE8F0812DE9F04706460C460027B84661
:102950000025A9463B20FEF75FF88146022020EAC9
:102960000900A0B13920FEF757F88046C8F58075F8
:10297000A54206DA2F462A4631463D20FEF766F884
:1029800005E0224631463D20FEF760F827463846EE
:10299000BDE8F087014A024900F013B8AD3D0008D8
:1029A0005015002002E008C8121F08C1002AFAD101
:1029B00070477047002001E001C1121F002AFBD1BF
:1029C00070472DE9F04116460F460446002503E006
:1029D0003946B047641C6D1C20780028F8D1284681
:1029E000BDE8F08110B501F07DF902F041FF012250
:1029F0004149424800F002F901224149414800F0B2
:102A0000FDF801224049414800F0F8F80122404910
:102A1000404800F0F3F801223F49404800F0EEF84A
:102A200001223F493F4800F0E9F801223E493F4872
:102A300000F0E4F801223E493E4800F0DFF80122B0
:102A40003D493E4800F0DAF840F6B8323C493D488E
:102A500000F0D4F84FF47A723B493C4800F0CEF8CD
:102A600042F228323A493B4800F0C8F842F2283294
:102A700039493A4800F0C2F842F228323849394818
:102A800000F0BCF840F6B8323749384800F0B6F8E4
:102A90004FF48370364948800880084600793549EC
:102AA00008710521334801F0E3F832494871304894
:102AB00000793149087105212F4801F0D9F82E49D4
:102AC00048712B4800792D49087109212B4801F0E4
:102AD000CFF82A4948722A480021016041602948FC
:102AE000016041600E2218212748FDF72DFB0020D0
:102AF0002649488010BD000051600008942B00203A
:102B00003D600008A42B0020B1630008B42B002016
:102B1000A5510008C42B002091510008D42B00209F
:102B2000713D0008E42B0020853D0008F42B0020B7
:102B3000993D0008042C00209D630008142C0020FF
:102B40003D570008342C00206D410008242C002043
:102B50003D620008442C0020F1620008642C002033
:102B60007D610008542C002035640008742C00207E
:102B70001A00002003150020FC1400200A15002074
:102B8000CE140020BE1400209D1400208A000020D6
:102B90002DE9F04706460F46154698464FF00009C6
:102BA00000241548006810B90020BDE8F0872846C9
:102BB00001F024FD8146B9F1000F01D10020F4E7B6
:102BC000102001F01BFD04460CB90020EDE7204663
:102BD000FEF75EFBC4F800902771E58084F808805A
:102BE0002A4631462068FDF79DFA0020E060204625
:102BF00003F0E6F90120D8E74814002030B5034679
:102C00000E4C206840B91846002404604260816080
:102C1000C4600A4C206010E0084C206800E0C068E6
:102C2000C468002CFBD1C360C5682C60C4686260B6
:102C3000C468A1600024C568EC6030BDF4140020B5
:102C40002DE9F04104460F4615461E462748005D13
:102C5000FF280BD12648005D00F00200002842D179
:102C60002A463946204600F07FF83CE02048005DC7
:102C700000F0020068B11D48005DA84233D11D4834
:102C80000079B0422FD12A463946204600F0BEF8DE
:102C900029E01748005D00F0010098B11348005D7D
:102CA000A84203D113480079B04205D02A463946DC
:102CB000204600F059F816E02A463946204600F032
:102CC00051F910E00948005DA84203D10948007994
:102CD000B04205D02A463946204600F045F802E0C9
:102CE000204600F0B9FEBDE8F08100001D1800206C
:102CF000582B00201A00002070B504460D461646D9
:102D00001748005DFF2815D11648005D00F002004D
:102D100028B132462946204600F078F81FE01148D5
:102D2000005D00F00100D0B132462946204600F097
:102D300019F914E00B48005D00F0020028B132469A
:102D40002946204600F062F809E00648005D00F0E0
:102D5000010020B932462946204600F0AFF870BD88
:102D60001D180020582B002070B50B462449095C23
:102D7000072900DD70BD2249095C072937D1214CA4
:102D80002579214C21884C1C1F4E3480741D6554BC
:102D9000441CE5B2344621884C1C3480741D6554B3
:102DA0000025641F21884C1C3480741D6554042543
:102DB000641F21884C1C3480741D65547E21641F5F
:102DC0006171092431460C7201213446217121467A
:102DD0000988B1F5927F01DD042121800849083975
:102DE000095C41F00201064C083C215405E004490D
:102DF000095C491CCCB202490C5400BFBAE7000080
:102E0000602B00201A0000202000002070B50B4627
:102E10002749095C032906DA2549095C491CCCB21B
:102E200023490C5441E02249095C03293CD1214C3F
:102E30002579214C21884C1C1F4E3480741D65540B
:102E4000441CE5B2344621884C1C3480741D655402
:102E50000025641F21884C1C3480741D65540C258A
:102E6000641F21884C1C3480741D65547E21641FAE
:102E70006171092431460C720121344621712146C9
:102E80000988B1F5927F01DD0421218008491039BC
:102E9000095C21F00201064C103C21540024044935
:102EA0000C5408390C5400E070BD00BFFCE7000072
:102EB000682B00201A0000202000002070B50B466F
:102EC0002549095C072900DD70BD2349095C0729F4
:102ED0003AD1082420490C54204C2579204C2188D3
:102EE0004C1C1F4E3480741D6554441CE5B234469E
:102EF00021884C1C3480741D65540025641F218872
:102F00004C1C3480741D65540325641F21884C1C9F
:102F10003480741D65547E21641F6171092431461B
:102F20000C7201213446217121460988B1F5927F46
:102F300001DD0421218008491839095C41F00101B3
:102F4000054C183C215405E00349095C491CCCB2EE
:102F500001490C5400BFB7E7702B00201A00002075
:102F60002000002070B50B462749095C032906DACA
:102F70002549095C491CCCB223490C5441E0224943
:102F8000095C03293CD1214C2579214C21884C1C1A
:102F90001F4E3480741D6554441CE5B234462188AC
:102FA0004C1C3480741D65540025641F21884C1C02
:102FB0003480741D65540D25641F21884C1C348099
:102FC000741D65547E21641F6171092431460C72A1
:102FD00001213446217121460988B1F5927F01DD36
:102FE0000421218008492039095C21F00101064CA7
:102FF000203C2154002404490C5408390C5400E0AE
:1030000070BD00BFFCE70000782B00201A000020F4
:1030100020000020F0B504460E46A078617840EA12
:1030200001250027B54201DC207808B90020F0BD59
:103030002946204600F01CFE0746605DB84208D1D4
:1030400020787E2805D1601940785A2801D10120C6
:10305000EDE70020EBE700000146002001F10D0242
:10306000034B9A5C112A01D1112000E00C2070471B
:10307000A43E00202DE9F047044688464FF00009A1
:103080000025002600270020FE490870FE49087030
:10309000204600F019FB8146B9F1000F70D0A078EE
:1030A000801C617840EA0127E0780F2815D00ADCFF
:1030B000A0F104000A287BD2DFE800F0123F630E83
:1030C0007A7A7A7A7AF1102808D0132807D08228E1
:1030D0006FD0FC286CD10EE000BF00BF00BF00BF66
:1030E0005A20E11901F8010C05233A460321204634
:1030F000FFF74EFDDBE2A7F10802A11DE348FDF753
:1031000011F8E3480078032816D16179481EE14A96
:1031100011546279501EE0490A5440F289108742E6
:1031200005D10C2160790D30DA4A115404E01121E7
:1031300060790D30D74A1154B9E2D8480078012897
:1031400013D1A179491E01EB410109013731CF4A61
:10315000921F88183022E11DFCF7E4FFA0790828AF
:103160000DD10120CD49087009E05A20E11901F87C
:10317000010C05233A4603212046FFF709FD96E29C
:1031800096E2A8F10100C649085C00B98FE22079F7
:10319000012835D14646617A701E00EB40000930A7
:1031A000C04A1154617A701EBF4A1154002524E0B0
:1031B0007CE231E2BA48405D012804D1BA48405D62
:1031C0000E2800D11BE0072D15D1B84802F017FFDB
:1031D0000120B44908712121B24800F049FDB149EC
:1031E00081F821005A2081F822000523232203219F
:1031F000AC48FFF7CDFC681CC5B2082DDADB74E0E3
:103200002079022832D1267A617A701E00EB4000C4
:103210000930A44A1154617A701EA54A1154002540
:1032200021E0A148405D20B9A148405D0E2800D1B1
:103230001BE0072D15D19F4802F0E1FE02209949BD
:1032400008712121974800F013FD964981F821006B
:103250005A2081F822000523232203219148FFF7F9
:1032600097FC681CC5B2082DDBDB3EE02079032803
:103270003BD1267A617A701E00EB40000930894A02
:103280001154617A701E8C4A1154002526E086483C
:10329000405D28B98848405D0E2801D120E02DE02E
:1032A000072D19D1854802F0AAFE03207D49087137
:1032B00021217C4800F0DCFC7A4981F821005A2069
:1032C00081F822000523232203217648FFF760FCC2
:1032D0007548002101604160681CC5B2082DD6DB2D
:1032E00000BF0021701E6E4A11540022701E7449E6
:1032F0000A540021724A183A1154D8E12079102852
:103300002BD009DC0B2840D2DFE800F03F401F2023
:103310002122232425262F008C2827D00CDC1928D5
:103320001DD004DC112832D018282ED116E0302808
:1033300016D08A28F9D116E0A22815D0B12810D0CD
:10334000B2280FD0EE28F0D111E000BF00BF00BFBF
:1033500000BF00BF00BF00BF00BF00BF00BF00BF75
:1033600000BF00BF00BF00BF00BF00BF00BF5A20AA
:10337000E11901F8010CA078801C617840EA012273
:10338000052303212046FFF703FC43E100BFB7F507
:10339000D67F01DABDE8F087E01910F8030C39494F
:1033A0000870A079401E38490870364801783648C0
:1033B00000780E30374A115411204249324A1278AF
:1033C0008854A1793448304A12788154A079092868
:1033D0007CD2DFE800F07B0510294589A9CCF300F9
:1033E00028480078C0EBC00000EB8002611D274830
:1033F000FCF798FE0CE134480078C0EBC00000EB0D
:103400008000801D21490C3908801E490978C1EBD4
:10341000C10101EB81021D490C390B88891D581827
:10342000611DFCF77FFEF3E02748007826494978C4
:103430000844C0EBC00000EB8000801D13490C392C
:10344000088010490978C1EBC10101EB81020F49E5
:103450000C390B88891D5818611DFCF763FED7E0F5
:103460001948007818494978084417498978084468
:10347000C0EBC00000EB8000801D04490C390880BF
:10348000004924E044140020451400209600002048
:10349000FB140020A43E00201D180020E114002091
:1034A000BE14002096140020CE140020442C0020CE
:1034B000C6140020642C0020D6140020542C0020B8
:1034C000702B002018140020341400209FE009788D
:1034D000C1EBC10101EB810276490B88891D5818A7
:1034E000611DFCF71FFE93E073480078724949782C
:1034F00008447149897808446F49C9780844C0EB89
:10350000C00000EB8000801D6A4908806B49097883
:10351000C1EBC10101EB810266490B88891D581876
:10352000611DFCF7FFFD73E063480078624949784C
:1035300008446149897808445F49C97808445E496C
:1035400009790844C0EBC00000EB8000801D594998
:1035500008805A490978C1EBC10101EB8102554944
:103560000B88891D5818611DFCF7DCFD50E052489E
:1035700000785149497808444F49897808444E49B0
:10358000C97808444C49097908444B4949790844A9
:10359000C0EBC00000EB8000801D46490880474911
:1035A0000978C1EBC10101EB810242490B88891DF9
:1035B0005818611DFCF7B6FD2AE0FFE73E48007889
:1035C0003D49497808443C49897808443A49C978D2
:1035D0000844394909790844374949790844364942
:1035E00089790844C0EBC00000EB8000801D3149A0
:1035F000088032490978C1EBC10101EB81022D49F4
:103600000B88891D5818611DFCF78CFD00E000BF78
:1036100000BF00BF00BF4AE06079FFF71DFD2749EA
:10362000087008460078112802D11720087002E0BF
:1036300012202249087006252AE0605D30B3204937
:103640000A7920490888411C1E4B1980591D0A54CB
:103650006279491F0888411C1980591D0A54691F45
:10366000CAB219460888411C1980591D0A54625D66
:10367000491F0888411C1980591D0A54481F008899
:10368000B0F5927F02DD0420491F0880681CC5B296
:103690000A4800788542D0DB7E200A49487109211A
:1036A0000848017201200749087100E000BF00BF0F
:1036B00000BF6FE68A00002034140020441400206C
:1036C0001A000020200000202DE9F04104460025CA
:1036D000002600270CB1207810B90020BDE8F08149
:1036E000A078617840EA0125B5F52F7F01DD002043
:1036F000F4E72946204600F0BBFA0646675DBE4265
:1037000008D120787E2805D1601940785A2801D147
:103710000120E3E70020E1E72DE9F04104460D46F2
:10372000164600272046FFF7CFFF0746012F7DD121
:10373000E078202810D1A079112805D111216079D5
:10374000401E524A115404E00C216079401E4F4A39
:1037500011540120BDE8F081E078202851D0E078B4
:10376000F6284ED0E07800284BD0E078A62810D17B
:1037700006EB061101EBC611454A02EB81004FF43E
:103780001171FCF7E8FC40F262212046FCF7E3FCF3
:103790005AE04048007801280FD03F48408801286F
:1037A0000BD0E078052808D0E078062805D0E0782E
:1037B000FC2802D0E078042819D13848805D78B11F
:1037C0003548408801280BD0E078052808D0E078FB
:1037D000062805D0E078FC2802D0E078042804D13F
:1037E00029462046FFF746FC06E00120B2E740F2FA
:1037F00062212046FCF7AFFC2949284600F0F6FF7D
:1038000022E0E078F6281AD106EB061000EBC6108D
:103810001F4901EB8000C07860B106EB061000EB99
:10382000C6100A4602EB8001284600E00EE000F0D8
:10383000DDFF09E01B49284600F0D8FF04E040F214
:1038400062212046FCF787FC012083E70021681DE8
:10385000154A1154681E154931F81000401C81B2F8
:10386000681E124A22F81010114631F810004FF667
:10387000FE71884203DD0021681E22F8101040F21C
:1038800062212046FCF767FC002063E73414002027
:10389000842C00201C1800208A000020582B0020B7
:1038A00003150020221400204C140020822B00203D
:1038B00070B505460C46164604EB041000EBC41028
:1038C0000F4901EB8000C07850B104EB041000EB0D
:1038D000C4100A4602EB8001284600F087FF0DE085
:1038E000084800790849087108464571062100F02A
:1038F000BFF905498871284600F078FF70BD0000C7
:10390000842C00201A000020221400202DE9F0470A
:103910000026B04649480078401EC4B2B146002790
:10392000B2464648007800F0F5F90546002085F8D3
:10393000630285F862024148007800F029FF3246B0
:1039400021463E480078FFF7B3FF3C48007800F07E
:10395000BAFE3B484088012804D140F2AA50FCF747
:10396000CBFE14E0002710E0364890F8B80201289A
:1039700006D13448407A202802D100F0EDFD02E063
:103980000B20FCF7B9FE781CC7B2782FECDB95F85A
:10399000620210B3002085F86202224627480178AF
:1039A0002846FFF7B9FE00F0FF08B8F1000F2AD053
:1039B000E878202802D1E879012802D0E878822826
:1039C00021D1701CC6B295F8059095F804A0601C32
:1039D000C1B2A01D1C4A115415E00021A01D1A4AB5
:1039E00011541A4830F81400401C184921F81400EA
:1039F000084630F814004FF6FE71884203DD0020BF
:103A0000124921F8140012480078012808D1114801
:103A1000007828B953464A463146204600F0F0F86F
:103A200006480078401C05490870084600780828B8
:103A300001DD01200870BDE8F0870000431400207C
:103A40008A0000205C1500204C140020822B0020EE
:103A50001C180020DF1400200549095C002906DD40
:103A6000002203490A540021014A183A11547047B0
:103A7000702B00202DE9F04790B0044689460025C0
:103A800009F1010000F0FF080026AA4600273C21AA
:103A900001A8FCF760FB25792846092D22D009DC16
:103AA000A0F1020007287CD2DFE800F015161718F5
:103AB0001B4C1900192816D006DC0A2815D010282E
:103AC00041D018286DD10BE030283DD0A2280BD072
:103AD000B12866D12AE000BF00BF00BF00BF00BF11
:103AE00000BF00BF00BF00BF00BF8DF80A500A2D05
:103AF00001D1424805788DF80850D4F80500CDF87A
:103B00000B00D4F80900CDF80F00607B8DF813008E
:103B1000E079404502D10E208DF80F00E07A404553
:103B200002D10E208DF8130011263BE08DF80850CD
:103B3000D4F80500CDF80B00607A8DF80F00002056
:103B400004902FE000BF00BF8DF80A500A2D01D16C
:103B50002A4805788DF80850A078401F00F0FF0A29
:103B60005246611D0DF10B00FCF7DCFA0AF108006A
:103B7000C6B200270BE0B800C01D205C404504D150
:103B80000E21B8000B3001AA1154781CC7B2A178DD
:103B9000881FC11700EB9171B7EBA10FEBDB01E0C0
:103BA000FFE700BF00BF7E208DF8040000208DF8E5
:103BB00005008DF806600D208DF80700AC208DF80B
:103BC00009008DF80A000021701E01AA1154314627
:103BD00001A800F04DF801A988555A2101AA701CCE
:103BE00011540523B21C032101A8FEF7D1FF0020C8
:103BF0000249087010B0BDE8F087000042140020B0
:103C00002DE9F04104460D4616461F4614484088EB
:103C1000012810D004EB440009301249085C0F2839
:103C200009D004EB44000930085C012803D00E4899
:103C3000005D012804D12046FFF70EFFBDE8F081AA
:103C40002DB9324629462046FFF756F805E03B4697
:103C5000324629462046FEF7F3FF00BFEEE700009C
:103C60008A00002096140020BE1400207047704780
:103C700030B502460B46002100202CE0802127E0D1
:103C800000F080042CB114780C4014B14406200ECE
:103C90001DE000F080043CB114780C4024B94406C7
:103CA000200E80F0310012E000F080043CB914785E
:103CB0000C4024B14406200E80F0310007E000F0F3
:103CC000800424B914780C400CB94406200E491025
:103CD0000029D5D1521C1C1EA3F10105ABB2CDD1D8
:103CE00030BD000010B5102000F088FC08490860C5
:103CF0000846006808B9002010BD05480068FDF7B7
:103D0000C7FA002002490968C8600120F4E70000F2
:103D10004814002001460020092916D2DFE801F0EE
:103D20001513110F0D0B0907050009480EE009488E
:103D30000CE009480AE0094808E0094806E009489B
:103D400004E0094802E0094800E000BF00BF7047F6
:103D5000281800208E1A0020F41C00205A1F002072
:103D6000C0210020262400208C260020F2280020DC
:103D70000120034981F862020020A1F86402704723
:103D80008C2600200120034981F862020020A1F85E
:103D9000640270472624002000200349A1F8640231
:103DA000012081F862027047C021002070B50446EE
:103DB0000D46E1B20548FEF70BF800BF802103482D
:103DC000FDF767FF0028F9D0204670BD003801409C
:103DD00010B5002821D0114B0022001F196803E004
:103DE000814203D80A4649680029F9D152B11368C3
:103DF000841A9C4204D1006818441060104602E006
:103E0000506000E0186039B102680B1A934203D188
:103E10000B681A4402604968416010BD54150020C7
:103E20002DE9F04706254FF023090024002701263D
:103E30004FF0010800BF07E03046FFF70DF909FB1E
:103E4000004084B2701CC6B2082EF5DDE01D84B2BD
:103E5000B4F5965F07DD00203949088008713949BB
:103E60000870BDE8F0877E2035498871210A344802
:103E7000C17104720D214172417981723248017918
:103E80002F48C1720127012642E03046FFF7E4F8CF
:103E90000C281BD14FF0010814E02B480179284869
:103EA000801D4155691C4654A91C475405F1230047
:103EB00085B2781CC7B20D2F00D1012708F101008F
:103EC00000F0FF08B8F10C0FE7DD1FE03046FFF708
:103ED000C3F811281AD14FF0010814E01A480179EB
:103EE0001748801D4155691C4654A91C475405F1CB
:103EF000230085B2781CC7B2122F00D1012708F128
:103F0000010000F0FF08B8F1110FE7DD701CC6B228
:103F1000082EBADD0822601E0949891D0A5421466F
:103F20000748801DFFF7A4FE0549891D08555A2240
:103F30000846611C425400200149488000BF90E7B8
:103F40008A0000201C1800201A0000201FB5002441
:103F500019A30FCB8DE80F001B48807A8DF80B005A
:103F600040F2B7147E2019498871210A1748C1719F
:103F70000472AA2141721648017914488172FF2106
:103F8000C172082101730D2269460D30FCF7CAF891
:103F90000D2269460D482530FCF7C4F821460B4830
:103FA000801DFFF765FE094981F8BD015A210748C8
:103FB00080F8BE111FBD00000200020001070101D0
:103FC0000104080000000000A43E00208A00002038
:103FD0001A00002010B5002440F287147E200E49FC
:103FE0008871210A0C48C1710472FC2141720B488E
:103FF0000179094881720A4801780748C17221464F
:10400000801DFFF735FE044981F88D015A210248D1
:1040100080F88E1110BD00008A0000201A000020D8
:10402000FA14002030B587B0002400251C21684612
:10403000FCF791F84948407B05283DD17E208DF85A
:10404000000000208DF8010015208DF80200FA20F4
:104050008DF803004148807A8DF8040000BF11E01C
:104060003F4830F81500010A6800401D0DF80010A7
:104070003B4830F81500C1B26800801D0DF80010F3
:10408000681CC5B2082DEBDB15216846FFF7F0FD73
:104090008DF815005A208DF816009DF80200801C3E
:1040A0009DF8011040EA0122052303216846FEF72E
:1040B0006FFD002007B030BD2848C07AFF2822D10C
:1040C0000120284908701BE004EB041101EBC41126
:1040D000254A02EB81004FF41171FCF73CF804EB28
:1040E000041000EBC410204901EB80001B49891D1E
:1040F0000A6802604A68426009890181601CC4B292
:10410000082CE1DB25E01548C07A002821DD1348A2
:10411000C07A09281DDA1148C47A611E01EB011228
:1041200002EBC111104A02EB81004FF41171FCF750
:1041300012F8601E00EB001101EBC0100A4901EB00
:1041400080000649891D0A6802604A684260098940
:10415000018101F0CFF90020ACE700005C150020E0
:10416000822B0020E0140020842C002010B54FF496
:104170007A71044801F092F9FDF754FB014801F00F
:104180003BFF10BD242C0020FDF776FC012080F3BE
:10419000108800BFFCF766F8FEF724FC4FF480712E
:1041A0002048FCF721FF4FF400611E48FCF71CFF7C
:1041B0004FF480511B48FCF717FF4FF4004119489A
:1041C000FCF712FF08211848FCF70EFF10211648D3
:1041D000FCF70AFF20211448FCF706FF4021124893
:1041E000FCF702FF80211048FCF7FEFE00F078FB90
:1041F0004FF47A70FCF780FA002080F3108800BF3B
:104200000AA0FEF7C7FB0CE00C4890F8B80210B10A
:1042100000F0A2F905E00A480078012801D1FFF773
:1042200075FBF1E700080140000C01406F64662057
:1042300038202B2031200D0A000000005C150020E2
:10424000E014002070B588B0002400250026B8488E
:10425000447A857AC67AA62C02D0F62C7ED162E109
:1042600028460F2D7BD00BDCA0F103000B2877D262
:10427000DFE800F0FCFDFEF8F776BF7676762600E4
:10428000AA2812D006DC10286BD013286AD0332855
:1042900066D106E0BB2807D0FA287DD0FC28F7D1EC
:1042A000EDE001F0FFF83CE13BE141F28831A1484B
:1042B000FBF751FF0020A0490870A049087030E1C9
:1042C000112E71D00BDC69D2DFE806F09026797AE6
:1042D0007B7C7D7E7F8087909090909081008A2E5D
:1042E0007DD00CDC302E75D004DC182E70D0192E49
:1042F0007CD16EE0882E73D0892E77D171E0B12EFB
:1043000069D004DC8C2E69D0A22E6FD16BE0B22E66
:1043100062D0EE2E6AD165E041F288318548FBF724
:104320001AFF00208349891F0880087101208449F1
:104330000870FF221E216846FBF706FF8048401CDC
:1043400001680091406801907E480168CDF80E1028
:104350004068CDF812007A48007804E0E4E088E094
:10436000DEE0B1E086E08DF80900774800798DF84D
:104370000A000020FFF77AFC4FF4FE3000F074F9D9
:104380001E2269464FF4FE3000F06FF91E226D497F
:104390000E394FF4FE3002E06EE005E026E0FDF756
:1043A00033FAFFF764FC22E041F288316148FBF701
:1043B000D2FE00205F49891F0880087117E000BF06
:1043C00000BF00BF00BF00BF00BF00BF00BF00BFF5
:1043D00000BF00BF00BF00BF00BF00BF00BF00BFE5
:1043E00000BF00BF00BF01F05DF800E000BF00BFEC
:1043F00097E0564800885549498888420DD10020E9
:1044000052490871042008800846008848806421C9
:104410004E48401DFBF79FFE22E04C4800884B4968
:10442000498888421CDD49484088011F47480930B7
:10443000FBF791FE45480088444B5B88C21A43480D
:104440004388401D1918001DFBF76CFE3F4800888B
:104450003E494988401A001D3C4908800420488094
:104460005FE008E036E003E001E0FFE700BF00BFE7
:1044700000BF00BF00BF00BF01F014F851E00020F2
:104480003349087041F288312A48FBF764FE1E2246
:104490002C490E396846FBF745FE0020FFF7E6FB86
:1044A0004FF4FE3000F0E0F81E2269464FF4FE3073
:1044B00000F0DBF81E2223490E394FF4FE30FDF7E1
:1044C000A3F9FFF7D4FB2CE001202249087000F08B
:1044D000E9FF26E000F0E6FF1A480E38407B782816
:1044E0001DD1FF221E2117480E38FBF72DFE1E227C
:1044F00014490E394FF4FE30FDF786F9FF201149BB
:104500000E39C872087348734FF4FE3000F0ACF8EF
:104510001E220C490E394FF4FE3000F0A6F800E0E0
:1045200000BF00BF01E000E000BF00BF08B070BDE9
:104530005C15002090000020F8140020E1140020F9
:104540001C180020B23E00201A000020200000208D
:10455000F9140020E014002070B500250026002486
:1045600022488088801E81B22048801DFEF752FDBF
:104570000646012E33D11D48801DFCF77BFF054602
:104580005DB940F2B2211948801DFBF7E4FD00201F
:104590001649888081F8B80270BD1448447A202CEE
:1045A00002D100F0E5FC1AE0A62C01D0F62C02D1D5
:1045B000FFF748FE13E00E48007801280FD10D48A0
:1045C00000790D49087105210B48FFF751FB0A4995
:1045D00048710721084800F04DF900F08FFD0020D8
:1045E0000249888081F8B80200BFD5E75C15002039
:1045F000E01400201A00002003150020F0B50B3055
:10460000154D20F007010024144A0FE003688B4287
:104610000BD38B4205D95E1A43184768C3E900677C
:1046200000E04368136002C004E0021D1068002827
:10463000ECD12046002802D1286808B10020F0BD46
:10464000064A07481060074A121A22F00702C0E91A
:10465000002401202860D7E75815002054150020B9
:10466000CC3E0020C84000207047704710B504467B
:10467000092C26D2DFE804F025211D1915110D099A
:1046800005000820FCF71AFA1BE00720FCF716FAD1
:1046900017E00620FCF712FA13E00520FCF70EFAEB
:1046A0000FE00420FCF7B0F80BE00320FCF7ACF8B7
:1046B00007E00220FCF7A8F803E00120FCF7A4F8CB
:1046C00000BF00BF10BD10B50446092C26D2DFE89C
:1046D00004F025211D1915110D0905000820FCF70E
:1046E00027FA1BE00620FCF723FA17E00520FCF769
:1046F0001FFA13E00520FCF71BFA0FE00420FCF77B
:10470000BCF80BE00320FCF7B8F807E00220FCF748
:10471000B4F803E00120FCF7B0F800BF00BF10BD03
:1047200070B504460D461646092C2ED2DFE804F07B
:104730002D28231E19140F0A050031462846FDF7BF
:10474000D5FD23E031462846FDF7BEFE1EE031468A
:104750002846FDF753FD19E031462846FDF7D8FC01
:1047600014E031462846FDF75DFC0FE0314628464F
:10477000FDF7E2FB0AE031462846FDF767FB05E05E
:1047800031462846FDF72AFE00E000BF00BF70BD9D
:1047900010B50446092C26D2DFE804F025211D19A6
:1047A00015110D0905000820FCF725FA1BE007206C
:1047B000FCF721FA17E00620FCF71DFA13E00520AC
:1047C000FCF719FA0FE00420FCF7BAF80BE003201D
:1047D000FCF7B6F807E00220FCF7B2F803E001208E
:1047E000FCF7AEF800BF00BF10BD000070B5064674
:1047F0000C46002504B970BDA078617840EA012517
:10480000A81C85B2B5F5167F00DDF4E7E078202816
:1048100005D1082213493046FFF782FF1FE0E078F8
:10482000A62805D1072210493046FFF779FF16E088
:10483000E078F62805D107220C493046FFF770FFD3
:104840000DE0E07858B1701E00EB001202EBC010D2
:10485000074A02EB80012A463046FFF761FF00BF9E
:10486000C9E700002214002003150020FC140020DA
:10487000842C002070B505460C46164890F8B90205
:10488000662801D1002070BD002001F09BFD4FF48F
:1048900080711148FCF7AAFB0E48C0F8BC520020FA
:1048A0000C49488008460480662081F8B9021E2021
:1048B000FBF722FF0948008840F080000749088084
:1048C00000BF044890F8B9026628FAD000BF00BFC4
:1048D0002046D8E75C150020000801400C44004049
:1048E00010B540F2B2210948FBF735FC002007491A
:1048F000891F81F8B80288804880088081F8B90251
:10490000C1F8BC02024801F077FB10BD621500201F
:10491000242C00202DE9F04F8BB000270025002427
:10492000A1460026A246A3460020079008900990C1
:104930000A908046FE48877A0A2F01D0FD4807700A
:10494000102F7DD00ADC0D2F6FD2DFE807F06E2428
:1049500071727374757677787D6EFD008C2F75D0CB
:104960000CDC192F6ED004DC112F15D0182F5CD160
:1049700067E0302F67D08A2FF9D168E0A42F7DD06F
:1049800004DC9A2F64D0A22FF1D15EE0B12F4DD07C
:10499000B22FECD14BE000BF0120E749087019E0CD
:1049A00004EB041101EBC411E44A02EB81004FF463
:1049B0001171FBF7D0FB04EB041000EBC410DF49CE
:1049C00001EB8000DA49891D0A680260496841608C
:1049D000601C84B2082CE3DB0020D94908800871F0
:1049E000D84800218161C161016041600120D44942
:1049F000488022220A21D448FBF7A6FB41F28831E5
:104A0000CF48801DFBF7A7FBC948807ACC49487185
:104A1000CE4801F0F1FAFF220821CD48FBF794FBC4
:104A2000002001F0CFFCFAE10AE0F7E100BF00BF8F
:104A300000BF00BF00BF00BF00BF00BF00BF00BF7E
:104A400000BF00BF00BF00BF00BF00BF00BF00BF6E
:104A5000072F07D0A22F05D0102F03D0302F01D061
:104A6000B22F16D1B248C07A072811D0B048C07A08
:104A700010280DD0AE48C07A302800E0CBE107D036
:104A8000AB48C07A112803D0A948C07A122800D1B7
:104A9000D0E1A748017B007C814265D1A448417BDD
:104AA000407C81421FD1A248407B401EC5B2082DE8
:104AB00079DA05EB051101EBC511A04A02EB810083
:104AC0004FF41171FBF747FB9949097A8A1C05EBF2
:104AD000051101EBC511994B03EB81009449891D28
:104AE000FBF720FB5FE09248407B401EC5B2082DDB
:104AF00018DA05EB051101EBC511904A02EB8100B4
:104B00004FF41171FBF727FB8949097A8A1C05EBE1
:104B1000051101EBC511894B03EB81008449891D07
:104B2000FBF700FB8248407C401EC5B2082D3ADAF4
:104B300005EB051101EBC511804A02EB81004FF432
:104B40001171FBF708FB00E02EE07949097A8A1C15
:104B500005EB051101EBC511784B03EB810074499E
:104B6000891DFBF7DFFA1EE07148407B401EC5B28D
:104B7000082D18DA05EB051101EBC5116F4A02EBA0
:104B800081004FF41171FBF7E6FA6949097A8A1C32
:104B900005EB051101EBC511684B03EB810064497E
:104BA000891DFBF7BFFA3AE16148017AC07941EA11
:104BB00000294FF0050AA9F101001FFA80FB00242B
:104BC00005E0052007A921F81400601C84B2082C18
:104BD000F7DB54461FE05648801D611C405C401EB8
:104BE00000F0FF0808EB081000EBC810534901EB78
:104BF000800007A931F8181001444D48801D204459
:104C00000068086007A830F81800001D07A921F8FF
:104C10001800201D84B25C45DDDB00244AE007A8B3
:104C200030F81400052843D007A830F814607E201F
:104C300004EB041101EBC411404A02F82100300AD0
:104C400004EB041101EBC41102EB8101487004EB89
:104C5000041101EBC41102EB81018E700D2004EBF5
:104C6000041101EBC41102EB8101C8700C2004EBAC
:104C7000041101EBC41102EB8101087104EB041172
:104C800001EBC41102EB81003146FEF7F1FF04EBAA
:104C9000041101EBC411294A02EB810188555A2104
:104CA00004EB041000EBC41002EB8002701C1154E2
:104CB000601C84B2082CB2DB002463E02448005D51
:104CC000FF2851D12048005D112859D121490A7986
:104CD00021490888411C204B1980591D0A54611C28
:104CE000CAB219460888411C1980591D0A5400226D
:104CF000491F0888411C1980591D0A540C22491F5C
:104D00000888411C1980591D0A547E20491F48718A
:104D100009211846017201201946087108460088C9
:104D2000B0F5927F01DD042008800020054915E0E0
:104D30005C15002042140020E0140020842C002088
:104D40008A000020582B002018140020342C00204A
:104D50001D1800201A000020200000200855601CAB
:104D6000C1B27F4801550BE07D48015D601C814266
:104D700006D17C48005D222802D1FF2178480155E8
:104D8000601C84B2082C99DBFF220A2104A8FBF7DF
:104D9000DBF9734801680491406805900020FEF734
:104DA00065FF01208DF816004FF4FE30FFF75CFC24
:104DB0000A2204A94FF4FE30FFF757FCFEF757FF15
:104DC000002000900190029003907E208DF800005A
:104DD00000208DF801000B208DF8020033208DF8A3
:104DE000030004980190BDF81400ADF808009DF888
:104DF00016008DF80A000B216846FEF739FF8DF882
:104E00000B005A208DF80C0005230D220321684663
:104E1000FDF7BEFE03E0FBF7E7F900E000BF00BFCF
:104E2000012F01D0112F02D10BB0BDE8F08F00F09F
:104E300061FBF9E74C48017AC07941EA00294FF05B
:104E4000060AA9F101001FFA80FB002405E00620F4
:104E500007A921F81400601C84B2062CF7DB544625
:104E60001FE04148801D611C405C401E00F0FF08AF
:104E700008EB081000EBC8103C4901EB800007A9C3
:104E800031F8181001443848801D2044006808603B
:104E900007A830F81800001D07A921F81800201DE8
:104EA00084B25C45DDDB002454E007A830F8140030
:104EB00006284DD007A830F814607E2004EB0411BA
:104EC00001EBC411294A02F82100300A04EB041155
:104ED00001EBC41102EB8101487004EB041101EBFA
:104EE000C41102EB81018E700D2004EB041101EB63
:104EF000C41102EB8101C8701B48807A04EB0411D5
:104F000001EBC41102EB810108711748C07A04EB70
:104F1000041101EBC41102EB8101487104EB04118F
:104F200001EBC41102EB81003146FEF7A1FE04EB58
:104F3000041101EBC4110D4A02EB810188555A217D
:104F400004EB041000EBC41002EB8002701C11543F
:104F5000601C84B2082CA8DB00F0CCFA00BF63E729
:104F60001D180020181400205C150020842C00203F
:104F700070B500245348007838B9012051490870B1
:104F800000205149087000F0FDFB5048407B782814
:104F900001D100F031FC4E48007968B1FEF740FFC6
:104FA0004B48007A801C4A4AD27940EA022148489C
:104FB000801DFFF75FFC84E046480079E0B145487A
:104FC0000488210A8171C4712146401DFEF750FEFC
:104FD0004049491D0855601C84B25A213D48401D76
:104FE0000155601C81B23B48401DFFF743FC394826
:104FF00000883849488064E0FCF750F901280AD05D
:10500000002535480068C568E9882868FFF732FC44
:105010000420287255E03148007801280DD1FEF7B0
:1050200095FF2B48007A801C294AD27940EA022158
:105030002748801DFFF71EFC43E02948007801281F
:105040000DD1FEF7C7FF2248007A801C204AD27992
:1050500040EA02211E48801DFFF70CFC31E01B488E
:10506000817A2048807A814215D01F480078022832
:1050700016DA1D480078401C1B4908700846007865
:1050800002280DD108700120184908701848002125
:105090008161C16104E00020134908701349087060
:1050A00014480079144908710848807AC8710921A8
:1050B0001148FEF7DDFD104948720B210E48FFF73D
:1050C000D9FB70BDF0140020E0140020A43E0020A5
:1050D0008A0000202000002048140020F81400203E
:1050E000F91400205C150020DE140020DF140020DD
:1050F000582B00201A0000200A15002070B500244B
:105100002248457A28460D2D2CD008DCA0F103005A
:10511000052837D2DFE800F01013161923001328F2
:105120002DD004DC0F2823D010282BD11DE0882897
:1051300021D0892826D11FE000F0A0F823E000F05C
:105140003BF820E000F0C6F81DE01048C07A0228C5
:1051500002D100F019FF01E000F090FB13E001F034
:1051600043F910E0FFF7D6FB0DE0FEF75BFF0AE026
:1051700000F078FF07E000BFFCF760FA03E0FCF7FF
:1051800097F800E000BF00BF204670BD5C1500200E
:1051900000200349A1F86402012081F862027047EF
:1051A0005A1F002000200349A1F86402012081F861
:1051B00062027047F41C002010B500242748C07A12
:1051C00000B910BD2548C07A401EC4B22348007EF5
:1051D000022817D10320224908702048C07A2149AB
:1051E0000870FF2020490855FF212048015504F18F
:1051F0000E001D4A115400211D48015500201C4974
:1052000018390855154A127A921C144BDB7942EA78
:10521000032104EB041202EBC412164B03EB8200D1
:10522000FAF799FF0D49097A891C0C4BDB7941EAA1
:10523000032204EB041101EBC4110E4B03EB8100BC
:105240000649891DFAF76EFF00F054F90A4800F08C
:10525000D3FE002001F0B6F800BFB2E75C150020D5
:10526000FB140020FA140020A43E00201D1800208A
:10527000702B0020842C0020742C002010B50024FA
:1052800012480079124908710020487100BF09E0F6
:10529000A01D0F49085C18B108464079401C4871B0
:1052A000601CC4B2082CF3DB0F210948FEF7E0FCB8
:1052B0000749C87308468078801C497840EA012273
:1052C000052303210248FDF763FC10BD1A000020EE
:1052D0004C1400207FB50025002462A30FCB8DE87D
:1052E0000F006448807A002845D06248C07A0028C0
:1052F00041D17E20604908700020487037208870B6
:105300000520C8709DF80A0008715C480079487152
:10531000002088715A48807A8DF80B000D2269466A
:105320005548C01DFAF7FEFE5348002141618161D6
:10533000818381770D2269461F30FAF7F3FE4E48CC
:105340000021C1620163818680F836103721FEF7A3
:105350008FFC494981F837005A2081F83800084607
:105360008078801C497840EA0122052303214248C5
:10537000FDF70EFC75E03F48C07A10B33D48C07A97
:10538000FF281ED03B48C07A401EC5B205EB051170
:1053900001EBC5113B4A02EB81004FF41171FAF7A2
:1053A000DAFE05EB051000EBC510364901EB800075
:1053B0003049891D0A6802604968416000F09AF826
:1053C0004FE02C48C07AFF284BD101202E490870AD
:1053D000002433E004EB041101EBC411294A02EB71
:1053E00081004FF41171FAF7B6FE04EB041000EBE4
:1053F000C410244901EB80001E49891D0A6802601F
:1054000049684160601C04EB041101EBC4111D4AA2
:1054100002EB8101487104EB041101EBC41102EBB2
:1054200081000621FEF724FC04EB041101EBC411FA
:10543000144A02EB81018871601CC4B2082CC9DBDC
:1054400041F288311148FAF786FE012010490870B0
:10545000104800F0D1FD02200F490870002000F034
:10546000B1FF7FBD02000200010701010104080035
:10547000000000005C1500205D1400201A000020D0
:10548000A43E0020842C0020E01400209000002086
:10549000E1140020742C0020FB1400200022026084
:1054A0004160704770B512480068C46810480568CC
:1054B000006808B9002070BD15E0207A042810D1DA
:1054C0002068FEF785FC00202060E06810B900200D
:1054D000E86001E0E068E8602046FEF779FC00241F
:1054E00001E02546E468002CE7D10120E3E7000055
:1054F0004814002070B50024002600BF6DE0012490
:1055000067E0601E00EB001101EBC010534901EB96
:105510008000C07800285AD02046FEF7FBFB0546E5
:10552000002085F8630285F862022046FFF730F913
:105530002046FFF7C8F895F8630268B9601E00EBD3
:10554000001202EBC010454A02EB80012046FFF733
:105550004DF9012085F8630240F2AA50FBF7CCF820
:1055600095F8620258B3002085F86202E878A62810
:1055700026D1601E00EB001101EBC010374901EB92
:105580008000C0780D280ED1601E00EB001101EBE9
:10559000C010324901EB80000079A62803D14FF4F6
:1055A000E170FBF7A9F8611E01EB011202EBC111DA
:1055B0002A4A02EB81004FF41171FAF7CCFD02E0A8
:1055C000002085F863022046FFF750F800BF601CFA
:1055D000C4B2092C95DB701CC6B2052E8FDB0124EA
:1055E00027E0601E00EB001101EBC0101B4901EB2E
:1055F0008000C0780D281AD1621ED1B202EB0213CE
:1056000003EBC212154B03EB8200FEF733FA611E67
:1056100001EB011202EBC111104A02EB81004FF4C1
:105620001171FAF798FD0021601E0D4A1154601C9B
:10563000C4B2092CD5DB00240CE004EB041101EB0F
:10564000C411064A02EB81004FF41171FAF783FD91
:10565000601CC4B2082CF0DB70BD0000842C00205C
:105660003C14002070B50124002600BF4DE0601EF0
:1056700000EB001101EBC0102E4901EB8000C07857
:10568000E0B32046FEF746FB0546002085F863029E
:1056900085F862022046FFF77BF82046FFF713F8F3
:1056A00095F8630268B9601E00EB001202EBC010AF
:1056B000204A02EB80012046FFF798F8012085F888
:1056C000630240F2AA50FBF717F895F8620288B11E
:1056D000002085F86202E878A6280BD1611E01EB54
:1056E000011202EBC111134A02EB81004FF4117158
:1056F000FAF731FD2046FEF7B9FF00BF601CC4B2C7
:10570000082C00DD0124701CC6B2122EAFDB002471
:105710000CE004EB041101EBC411064A02EB81001A
:105720004FF41171FAF717FD601CC4B2082CF0DBBE
:1057300070BD0000842C00207047000010B50024CC
:1057400040F6B8310C48FFF7A9FE0CE004EB041159
:1057500001EBC411094A02EB81004FF41171FAF711
:10576000FAFC601CC4B2082CF0DB0120044908716B
:1057700000F028FE10BD0000342C0020842C0020F6
:105780008A00002000B585B07E208DF80000002042
:105790008DF801000E208DF8020010208DF8030016
:1057A00002208DF80400134800798DF805000020D0
:1057B0008DF806008DF807008DF808008DF80900B7
:1057C0008DF80A008DF80B008DF80C008DF80D0097
:1057D0000E216846FEF74CFA8DF80E005A208DF81F
:1057E0000F000523102203216846FDF7D1F905B00B
:1057F00000BD00001A00002000B585B07E208DF8A5
:10580000000000208DF801000E208DF80200062017
:105810008DF8030003208DF8040002208DF80500A8
:1058200001208DF80600114800798DF8070000204E
:105830008DF808008DF809008DF80A008DF80B002E
:105840008DF80C008DF80D000E216846FEF710FA59
:105850008DF80E005A208DF80F0005231022032129
:105860006846FDF795F905B000BD00001A0000205C
:105870000020014908607047F41400202DE9F0472A
:1058800000260024A2460025A0460027A146FE4887
:10589000017AC07941EA0026FB48807A012804D0C9
:1058A00002287DD003287CD101E10E221821F7487F
:1058B000FAF74AFC0020F549C91FC87781F8200093
:1058C000F3480021016041600E220821F148FAF7F7
:1058D0003BFC0727EC48007B401E00EB40000930F2
:1058E0001FFA80F9EC480079E849C91FC8713D46A4
:1058F000CFE0E548801D405DE749097988427DD1C8
:10590000E148801D691C445C0121601EE04A11547D
:10591000E1480179601E00EB4000C01DDB4AD21F48
:105920001154601E00EB4000083011460C540F214A
:10593000601E00EB400009301154611E01EB0112A2
:1059400002EBC111D54A02EB81004FF40771FAF75F
:1059500002FC7E21601E00EB001202EBC010CF4A59
:1059600002F820100021601E00EB001202EBC010B4
:10597000CA4A02EB800041700C21601E00EB00124D
:1059800002EBC010C54A02EB800081700621601E48
:1059900000EB001202EBC010C04A02EB800001E0F5
:1059A0009CE1DDE2C170B848817A601E00EB001214
:1059B00002EBC010B94A02EB80000171B248C17A13
:1059C000601E00EB001202EBC010B44A02EB800034
:1059D00041710121601E00EB001202EBC010AF4AC2
:1059E00002EB80008171AC480179601E00EB00126F
:1059F00002EBC010A94A02EB800000E047E0C17151
:105A0000601E00EB001101EBC010114601EB80009D
:105A100004720021601E00EB001202EBC0109F4ACE
:105A200002EB80004172601E00EB001202EBC0101E
:105A30009A4A02EB80008172701E9349891D095CAD
:105A4000601E00EB001202EBC010944A02EB8000D3
:105A5000C172611E01EB011202EBC1118F4A02EB10
:105A600081000C21FEF704F9611E01EB011202EB2B
:105A7000C1118A4A02EB810108735A21601E00EBB2
:105A8000001202EBC010854A02EB80004173E81C53
:105A9000C5B24D45FFF62DAFFFF7E4FD42F22831C8
:105AA0007F48FFF7FBFC7E4800F0A6FA58E20E2282
:105AB00018217648FAF748FBFF207449C91FC877B8
:105AC00081F820000E2208217648FAF73DFB0727CF
:105AD0006D48007B401E00EB400009301FFA80F942
